:020000040800F2
:100000000000052425230008DD1B0008DF1B000875
:10001000E11B0008E31B0008E51B000800000000CE
:10002000000000000000000000000000018A00083D
:10003000E71B000800000000A18A0008058B0008EB
:100040007523000875230008752300087523000830
:100050007523000875230008752300087523000820
:10006000752300087523000875230008E91B0008A4
:10007000F91B0008091C0008191C0008291C0008AD
:10008000752300087523000875230008391C000833
:10009000491C000875230008752300087523000813
:1000A00075230008752300087523000875230008D0
:1000B00075230008752300087523000875230008C0
:1000C00075230008752300087523000875230008B0
:1000D000591C0008691C00087523000875230008D6
:1000E0007523000875230008000000007523000830
:1000F0007523000875230008752300087523000880
:10010000752300087523000875230008752300086F
:1001100075230008791C000875230008891C000855
:10012000752300087523000875230008752300084F
:10013000752300087523000875230008752300083F
:1001400000000000000000000000000000000000AF
:10015000752300087523000875230008752300081F
:10016000752300087523000875230008752300080F
:10017000752300087523000875230008000000009F
:100180007523000875230008991C000875230008D2
:1001900075230008752300087523000875230008DF
:1001A000752300087523000875230008000000006F
:1001B00075230008752300087523000875230008BF
:1001C00075230008752300080000000000000000EF
:1001D000000000000000000075230008000000007F
:1001E000000000000000000000000000000000000F
:1001F00000000000000000007523000875230008BF
:10020000752300087523000800000000752300080E
:10021000752300087523000875230008752300085E
:10022000752300080000000075230008000000008E
:1002300075230008752300080000000075230008DE
:10024000752300087523000875230008752300082E
:10025000752300087523000875230008752300081E
:10026000752300087523000875230008752300080E
:10027000752300087523000875230008000000009E
:1002800075230008752300087523000875230008EE
:10029000000000007523000875230008000000001E
:1002A000000000007523000875230008752300086E
:1002B000A91C00087523000875230008B91C000854
:0C02C00075230008752300087523000852
:1003000081F0004102E000BF83F0004330B54FEAC6
:1003100041044FEA430594EA050F08BF90EA020F33
:100320001FBF54EA000C55EA020C7FEA645C7FEAC6
:10033000655C00F0E2804FEA5454D4EB5555B8BFE9
:100340006D420CDD2C4480EA020281EA030382EA5A
:10035000000083EA010180EA020281EA0303362DEC
:1003600088BF30BD11F0004F4FEA01314FF4801CBF
:100370004CEA113102D0404261EB410113F0004FD1
:100380004FEA03334CEA133302D0524263EB430388
:1003900094EA050F00F0A780A4F10104D5F1200E26
:1003A0000DDB02FA0EFC22FA05F2801841F1000181
:1003B00003FA0EF2801843FA05F359410EE0A5F155
:1003C00020050EF1200E012A03FA0EFC28BF4CF086
:1003D000020C43FA05F3C01851EBE37101F000453C
:1003E00007D54FF0000EDCF1000C7EEB00006EEB49
:1003F0000101B1F5801F1BD3B1F5001F0CD34908D3
:100400005FEA30004FEA3C0C04F101044FEA445229
:1004100012F5800F80F09A80BCF1004F08BF5FEAB0
:10042000500C50F1000041EB045141EA050130BD90
:100430005FEA4C0C404141EB0101013C28BFB1F5A2
:10044000801FE9D291F0000F04BF01460020B1FAED
:1004500081F308BF2033A3F10B03B3F120020CDAC0
:100460000C3208DD02F1140CC2F10C0201FA0CF09E
:1004700021FA02F10CE002F11402D8BFC2F1200C03
:1004800001FA02F120FA0CFCDCBF41EA0C019040B9
:10049000E41AA2BF01EB0451294330BD6FEA040402
:1004A0001F3C1CDA0C340EDC04F11404C4F12002ED
:1004B00020FA04F001FA02F340EA030021FA04F3FF
:1004C00045EA030130BDC4F10C04C4F1200220FA56
:1004D00002F001FA04F340EA0300294630BD21FA94
:1004E00004F0294630BD94F0000F83F4801306BF5A
:1004F00081F480110134013D4EE77FEA645C18BF4E
:100500007FEA655C29D094EA050F08BF90EA020FE4
:1005100005D054EA000C04BF1946104630BD91EADC
:10052000030F1EBF0021002030BD5FEA545C05D1DF
:100530004000494128BF41F0004130BD14F580041E
:100540003CBF01F5801130BD01F0004545F0FE4192
:1005500041F470014FF0000030BD7FEA645C1ABFC7
:10056000194610467FEA655C1CBF0B46024650EAFE
:10057000013406BF52EA033591EA030F41F400212A
:1005800030BD00BF90F0000F04BF0021704730B5B0
:100590004FF4806404F132044FF000054FF0000185
:1005A00050E700BF90F0000F04BF0021704730B546
:1005B0004FF4806404F1320410F0004548BF40421B
:1005C0004FF000013EE700BF42004FEAE2014FEA70
:1005D00031014FEA02701FBF12F07F4393F07F4F4B
:1005E00081F06051704732F07F4208BF704793F04E
:1005F0007F4F04BF41F40021704730B54FF4607461
:1006000001F0004521F000411CE700BF50EA010263
:1006100008BF704730B54FF000050AE050EA01020C
:1006200008BF704730B511F0004502D5404261EB7C
:1006300041014FF4806404F132045FEA915C3FF4BD
:10064000D8AE4FF003025FEADC0C18BF03325FEA5A
:10065000DC0C18BF033202EBDC02C2F1200300FA0B
:1006600003FC20FA02F001FA03FE40EA0E0021FA30
:1006700002F11444BDE600BF4FEA4102B2F1E0438B
:1006800024BFB3F5001CDCF1FE5C0DD901F0004C79
:100690004FEAC0024CEA5070B2F1004F40EB8300C9
:1006A00008BF20F00100704711F0804F21D113F1F5
:1006B0003872BCBF01F00040704741F480114FEA2E
:1006C0005252C2F11802C2F1200C10FA0CF320FAB7
:1006D00002F018BF40F001004FEAC1234FEAD323D4
:1006E00003FA0CFC40EA0C0023FA02F34FEA43033E
:1006F000CCE77FEA625307D150EA01331EBF4FF0C7
:10070000FE4040F44000704701F0004040F0FE40E1
:1007100040F40000704700BF53B94AB9002908BF30
:1007200000281CBF4FF0FF314FF0FF3000F00CB835
:10073000ADF1080C6DE904CE0BF094FCDDF804E09B
:10074000DDE9022304B07047704700BF844641EAE8
:10075000000313F003036DD1403A41D351F8043B39
:1007600040F8043B51F8043B40F8043B51F8043B8B
:1007700040F8043B51F8043B40F8043B51F8043B7B
:1007800040F8043B51F8043B40F8043B51F8043B6B
:1007900040F8043B51F8043B40F8043B51F8043B5B
:1007A00040F8043B51F8043B40F8043B51F8043B4B
:1007B00040F8043B51F8043B40F8043B51F8043B3B
:1007C00040F8043B51F8043B40F8043B51F8043B2B
:1007D00040F8043B51F8043B40F8043B403ABDD29A
:1007E000303211D351F8043B40F8043B51F8043B3C
:1007F00040F8043B51F8043B40F8043B51F8043BFB
:1008000040F8043B103AEDD20C3205D351F8043BCA
:1008100040F8043B043AF9D2043208D0D2071CBF96
:1008200011F8013B00F8013B01D30B8803806046BF
:10083000704700BF082A13D38B078DD010F0030335
:100840008AD0C3F10403D21ADB071CBF11F8013BA5
:1008500000F8013B80D331F8023B20F8023B7BE7F4
:10086000043AD9D3013A11F8013B00F8013BF9D21F
:100870000B7803704B7843708B78837060467047B9
:1008800001F0FF01102A2BDB10F0070F08D010F841
:10089000013B013A8B422DD010F0070F42B3F6D145
:1008A000F0B441EA012141EA014122F007047FF05E
:1008B00000070023F0E80256083C85EA010586EAB5
:1008C000010685FA47F5A3FA87F586FA47F6A5FAF1
:1008D00087F68EB9EED1F0BC01F0FF0102F00702FD
:1008E00032B110F8013B013A83EA010313B1F8D1A8
:1008F0000020704701387047002D06BF3546033889
:10090000073815F0010F07D1013015F4807F02BFC1
:10091000013015F4C03F0130F0BC0138704700BF12
:1009200000000000000000000000000000000000C7
:1009300000000000000000000000000000000000B7
:1009400030B490F800F020F007016FF0000C10F0C8
:10095000070491F820F040F048804FF000046FF059
:100960000700D1E9002391F840F000F1080082FA75
:100970004CF2A4FA8CF283FA4CF3A2FA8CF34BBB40
:10098000D1E9022382FA4CF200F10800A4FA8CF2B9
:1009900083FA4CF3A2FA8CF3E3B9D1E9042382FA87
:1009A0004CF200F10800A4FA8CF283FA4CF3A2FA9C
:1009B0008CF37BB9D1E9062301F1200182FA4CF2D4
:1009C00000F10800A4FA8CF283FA4CF3A2FA8CF33B
:1009D000002BC6D0002A04BF04301A4612BAB2FA5D
:1009E00082F200EBD20030BC7047D1E9002304F062
:1009F0000305C4F100004FEAC50514F0040F91F897
:100A000040F00CFA05F562EA05021CBF63EA050333
:100A100062464FF00004AAE770B54FF0FF0C4CF4AB
:100A2000E06C1CEA11541DBF1CEA135594EA0C0F2C
:100A300095EA0C0F00F0DEF82C4481EA030621EA67
:100A40004C5123EA4C5350EA013518BF52EA0335A2
:100A500041F4801143F4801338D0A0FB02CE4FF054
:100A60000005E1FB02E506F00042E0FB03E54FF084
:100A70000006E1FB03569CF0000F18BF4EF0010E7C
:100A8000A4F1FF04B6F5007F64F5407404D25FEA78
:100A90004E0E6D4146EB060642EAC62141EA55512B
:100AA0004FEAC52040EA5E504FEACE2EB4F1FD0C6D
:100AB00088BFBCF5E06F1ED8BEF1004F08BF5FEAEB
:100AC000500E50F1000041EB045170BD06F000469D
:100AD00046EA010140EA020081EA0301B4EB5C044A
:100AE000C2BFD4EB0C0541EA045170BD41F4801142
:100AF0004FF0000E013C00F3AB8014F1360FDEBF67
:100B0000002001F0004170BDC4F10004203C35DA42
:100B10000C341BDC04F11404C4F1200500FA05F3C5
:100B200020FA04F001FA05F240EA020001F0004266
:100B300021F0004110EBD37021FA04F642EB0601DC
:100B40005EEA430E08BF20EAD37070BDC4F10C0406
:100B5000C4F1200500FA04F320FA05F001FA04F2CA
:100B600040EA020001F0004110EBD37041F10001B6
:100B70005EEA430E08BF20EAD37070BDC4F12005C1
:100B800000FA05F24EEA020E20FA04F301FA05F229
:100B900043EA020321FA04F001F0004121FA04F2D1
:100BA00020EA020000EBD3705EEA430E08BF20EAA1
:100BB000D37070BD94F0000F0FD101F000464000DB
:100BC00041EB010111F4801F08BF013CF7D041EA5D
:100BD000060195F0000F18BF704703F00046520061
:100BE00043EB030313F4801F08BF013DF7D043EA32
:100BF0000603704794EA0C0F0CEA135518BF95EAE8
:100C00000C0F0CD050EA410618BF52EA4306D1D16E
:100C100081EA030101F000414FF0000070BD50EA8D
:100C2000410606BF1046194652EA430619D094EA17
:100C30000C0F02D150EA013613D195EA0C0F05D101
:100C400052EA03361CBF104619460AD181EA030155
:100C500001F0004141F0FE4141F470014FF000000D
:100C600070BD41F0FE4141F4780170BD70B54FF0A8
:100C7000FF0C4CF4E06C1CEA11541DBF1CEA135528
:100C800094EA0C0F95EA0C0F00F0A7F8A4EB05040A
:100C900081EA030E52EA03354FEA013100F0888001
:100CA0004FEA03334FF0805545EA131343EA1263CA
:100CB0004FEA022245EA111545EA10654FEA00267F
:100CC0000EF000419D4208BF964244F1FD0404F538
:100CD000407402D25B084FEA3202B61A65EB030594
:100CE0005B084FEA32024FF480104FF4002CB6EB51
:100CF000020E75EB030E22BFB61A754640EA0C00D1
:100D00005B084FEA3202B6EB020E75EB030E22BF10
:100D1000B61A754640EA5C005B084FEA3202B6EB51
:100D2000020E75EB030E22BFB61A754640EA9C0010
:100D30005B084FEA3202B6EB020E75EB030E22BFE0
:100D4000B61A754640EADC0055EA060E18D04FEA9E
:100D5000051545EA16754FEA06164FEAC30343EA3E
:100D600052734FEAC2025FEA1C1CC0D111F4801F0B
:100D70000BD141EA00014FF000004FF0004CB6E704
:100D800011F4801F04BF01430020B4F1FD0C88BFA3
:100D9000BCF5E06F3FF6AFAEB5EB030C04BFB6EBAE
:100DA000020C5FEA500C50F1000041EB045170BDA1
:100DB0000EF0004E4EEA113114EB5C04C2BFD4EBCE
:100DC0000C0541EA045170BD41F480114FF0000E52
:100DD000013C90E645EA060E8DE60CEA135594EACE
:100DE0000C0F08BF95EA0C0F3FF43BAF94EA0C0FD1
:100DF0000AD150EA01347FF434AF95EA0C0F7FF446
:100E000025AF104619462CE795EA0C0F06D152EA99
:100E100003353FF4FDAE1046194622E750EA41067D
:100E200018BF52EA43067FF4C5AE50EA41047FF48E
:100E30000DAF52EA43057FF4EBAE12E74FF0FF3CF3
:100E400006E000BF4FF0010C02E000BF4FF0010CC4
:100E50004DF804CD4FEA410C7FEA6C5C4FEA430C3D
:100E600018BF7FEA6C5C1BD001B050EA410C0CBF8C
:100E700052EA430C91EA030F02BF90EA020F0020EE
:100E8000704710F1000F91EA030F58BF994208BF55
:100E900090422CBFD8176FEAE37040F00100704712
:100EA0004FEA410C7FEA6C5C02D150EA013C07D169
:100EB0004FEA430C7FEA6C5CD6D152EA033CD3D0B4
:100EC0005DF8040B704700BF8446104662468C46AE
:100ED0001946634600E000BF01B5FFF7B7FF0028E1
:100EE00048BF10F1000F01BD4DF808EDFFF7F4FF0A
:100EF0000CBF012000205DF808FB00BF4DF808ED95
:100F0000FFF7EAFF34BF012000205DF808FB00BFB7
:100F10004DF808EDFFF7E0FF94BF012000205DF8D9
:100F200008FB00BF4DF808EDFFF7CEFF94BF01208E
:100F300000205DF808FB00BF4DF808EDFFF7C4FF87
:100F400034BF012000205DF808FB00BF4FEA410CD0
:100F50007FEA6C5C02D150EA013C0AD14FEA430CB3
:100F60007FEA6C5C02D152EA033C02D14FF00000F0
:100F700070474FF0010070474FEA410212F500122E
:100F800015D211D56FF47873B3EB625212D94FEAD0
:100F9000C12343F0004343EA505311F0004F23FABA
:100FA00002F018BF404270474FF00000704750EA0F
:100FB000013005D111F0004008BF6FF000407047CC
:100FC0004FF00000704700BF0348044B834202D03B
:100FD000034B03B118477047AC070024AC0700244B
:100FE000000000000548064B1B1AD90F01EBA301B6
:100FF000491002D0034B03B118477047AC070024D7
:10100000AC0700240000000010B5064C237843B95B
:10101000FFF7DAFF044B13B10448AFF3008001235C
:10102000237010BDB007002400000000182B010839
:1010300008B5054B1BB105490548AFF30080BDE875
:101040000840FFF7CFBF00BF00000000B407002436
:10105000182B010800B583B01B4BD3F8D82042F001
:101060000102C3F8D820D3F8D83003F0010301936C
:10107000019B002205210B2001F010FA0B2001F04A
:101080001DFA002205210C2001F008FA0C2001F0C5
:1010900015FA002205210D2001F000FA0D2001F0C3
:1010A0000DFA002205210E2001F0F8F90E2001F0C2
:1010B00005FA002205210F2001F0F0F90F2001F0C0
:1010C000FDF903B05DF804FB0044025810B5164862
:1010D000164B036000238360C360037443748374FE
:1010E000032444610A2282611D21C16102624462BB
:1010F0008262C1620263436301228263C36320216F
:101100000164042242648364C264036542658365AA
:10111000C36501664366826602F0A2FE00B910BD97
:1011200000F006FBFBE700BF1009002400A0004010
:1011300010B51748174B036000238360C360037426
:1011400043748374032444610A2282611D21C161B6
:10115000026244628262C16202634FF4557242636A
:1011600001228263C36320210164042242648364F8
:10117000C264036542658365C36501664366826632
:1011800002F06EFE00B910BD00F0D2FAFBE700BF1E
:101190007008002400A4004010B51748174B0360E6
:1011A00000238360C3600374437483740324446125
:1011B0000A2282611D21C161026244628262C162AF
:1011C00002634FF4D562426301228263C36320212C
:1011D0000164042242648364C264036542658365DA
:1011E000C36501664366826602F03AFE00B910BD2F
:1011F00000F09EFAFBE700BFD007002400D40040B7
:1012000030B5BBB004460021359136913791389105
:101210003991B82206A80BF0D7F923686F4A934298
:1012200008D06F4A93424BD06E4A934200F08E80B2
:101230003BB030BD4FF400420023CDE906234FF010
:101240008053219306A804F0CFFA40BB664A136886
:1012500001331360012B25D0644BD3F8E02042F01A
:101260000802C3F8E020D3F8E03003F0080301934C
:10127000019B03233593022336930024379438943B
:101280000923399335A95A4803F0C4FA22460521A7
:10129000132001F003F9132001F010F9C8E700F062
:1012A00047FAD3E7514BD3F8EC2042F48072C3F8ED
:1012B000EC20D3F8EC3003F480730093009BCBE771
:1012C0004FF400420023CDE906234FF080532193D1
:1012D00006A804F089FA40BB434A1368013313603F
:1012E000012B25D0414BD3F8E02042F00202C3F895
:1012F000E020D3F8E03003F002030393039B602364
:101300003593022336930024379438940923399374
:1013100035A9384803F07EFA22460521142001F051
:10132000BDF8142001F0CAF882E700F001FAD3E713
:101330002E4BD3F8EC2042F48072C3F8EC20D3F8A3
:10134000EC3003F480730293029BCBE74FF400422E
:101350000023CDE906234FF08053219306A804F023
:1013600043FA48BB204A136801331360012B26D08F
:101370001E4BD3F8E02042F00802C3F8E020D3F877
:10138000E03003F008030593059B4FF44053359379
:10139000022336930024379438940525399535A9CE
:1013A000134803F037FA224629469F2001F076F8C9
:1013B0009F2001F083F83BE700F0BAF9D2E70B4B2E
:1013C000D3F8EC2042F48072C3F8EC20D3F8EC3070
:1013D00003F480730493049BCAE700BF00A000409D
:1013E00000A4004000D40040CC0700240044025870
:1013F000000C02580004025808B5012007F05EFAFC
:10140000FBE708B5012007F059FAFBE708B5012012
:1014100007F054FAFBE70000034B0360034B0B603B
:1014200080231360704700BFB00B0024B009002474
:1014300010B5D4B06B4C0DF59A7CA646BEE80F00F3
:10144000ACE80F009EE807008CE8070000214DA8DB
:1014500007F001FA644B18600DF58C7C04F11C0E4A
:10146000BEE80F00ACE80F009EE807008CE807001C
:10147000002146A807F0EFF95C4B18600DF1FC0C59
:1014800004F1380EBEE80F00ACE80F009EE807003C
:101490008CE8070000213FA807F0DDF9544B1860E5
:1014A0000DF1E00C04F1540EBEE80F00ACE80F00A3
:1014B0009EE807008CE80700002138A807F0CBF968
:1014C0004C4B18600DF1C40C04F1700EBEE80F0017
:1014D000ACE80F009EE807008CE80700002131A867
:1014E00007F0B9F9444B18600DF1A80C04F18C0E0B
:1014F000BEE80F00ACE80F009EE807008CE807008C
:1015000000212AA807F0A7F93C4B18600DF18C0CBC
:1015100004F1A80EBEE80F00ACE80F009EE807003B
:101520008CE80700002123A807F095F9344B1860D8
:101530000DF1700C04F1C40EBEE80F00ACE80F0012
:101540009EE807008CE8070000211CA807F083F93B
:101550002C4B18600DF1540C04F1E00EBEE80F00A6
:10156000ACE80F009EE807008CE80700002115A8F2
:1015700007F071F9244B18600DF1380C04F1FC0EE2
:10158000BEE80F00ACE80F009EE807008CE80700FB
:1015900000210EA807F05FF91C4B18600DF11C0C20
:1015A00004F58C7EBEE80F00ACE80F009EE8070053
:1015B0008CE80700002107A807F04DF9144B1860CC
:1015C000EC4604F59A740FCCACE80F0094E80700E1
:1015D0008CE807000021684607F03DF90D4B1860C4
:1015E00054B010BD302B0108740D0024700D002480
:1015F0006C0D0024680D0024640D0024600D00248F
:101600005C0D0024580D0024540D0024500D0024BE
:101610004C0D0024480D002470B58CB000240794B4
:10162000089409940A940B94384BD3F8E02042F0C4
:101630001002C3F8E020D3F8E02002F0100201927B
:10164000019AD3F8E02042F00402C3F8E020D3F876
:10165000E02002F004020292029AD3F8E02042F065
:101660008002C3F8E020D3F8E02002F08002039269
:10167000039AD3F8E02042F00102C3F8E020D3F847
:10168000E02002F001020492049AD3F8E02042F034
:101690000202C3F8E020D3F8E02002F00202059233
:1016A000059AD3F8E02042F00802C3F8E020D3F80E
:1016B000E03003F008030693069B154D01224EF21D
:1016C0000901284603F0B0F94FF46043079301265F
:1016D000089609940A9407A9284603F09BF8092361
:1016E00007930896099403230A9307A9284603F051
:1016F00091F84FF4A05307934FF48813089309947B
:1017000007A9044803F086F80CB070BD00440258E5
:10171000000802580010025808B50268034B9A42AC
:1017200000D008BD00F056FEFBE700BF00140040EB
:1017300072B6FEE700B59DB04C22002109A80AF060
:1017400043FF2022002101A80AF03EFF022003F0FF
:1017500071F900230093204B9A6922F440429A6168
:101760009B6903F440430093009B1B4B9B6913F45C
:10177000005FFAD0012209924FF480330A930223CA
:101780001293139314932821159116920422179201
:1017900018930C23199300231A931B9309A803F0A1
:1017A00073F9A8B93F230193032102910023039306
:1017B000082304934023059306934FF48062079215
:1017C000089301A803F04EFD20B91DB05DF804FB9D
:1017D000FFF7AEFFFFF7ACFF0048025808B5224BF9
:1017E0005B6913F4003F13D1BFF34F8FBFF36F8FCB
:1017F0001D4B0022C3F85022BFF34F8FBFF36F8FF2
:101800005A6942F400325A61BFF34F8FBFF36F8FB2
:1018100000F0B2FDFFF78EFFFFF7FEFEFFF71AFCA8
:1018200000F058F800F074FB00F002FB00F022F822
:10183000FFF74CFCFFF77CFCFFF7AEFC00F034FB3D
:1018400000F09AFB08F0DCF80028FBD14FF480721E
:101850000649074806F0CCFF09F014FBFFF7E8FD46
:1018600006F0F4FFFEE700BF00ED00E0F490002476
:10187000D812002408B51548154B03604FF48003B7
:101880004360002383600722C2604FF00072026150
:101890004FF0807242614FF0806282614FF080426F
:1018A000C261036243628362C36242638363C36350
:1018B000036443648364C36403654365836504F020
:1018C0004FFF00B908BDFFF733FFFBE7700F00249F
:1018D0000038004008B51648164B03604FF48003EB
:1018E00043604FF4003383600723C3600023036128
:1018F0004FF0807242614FF0806282614FF08052FF
:10190000C261036243628362C3624FF080424263FA
:101910008363C363036443648364C364036543658F
:10192000836504F01DFF00B908BDFFF701FFFBE769
:10193000E80E002400140058F0B5BBB004460021A6
:1019400035913691379138913991B82206A80AF02D
:101950003BFE2368634A934205D0634A934200F0FA
:101960008B803BB0F0BD4FF480520023CDE90623BD
:1019700006A803F039FF002875D15C4BD3F8E820A6
:1019800042F48042C3F8E820D3F8E82002F4804211
:101990000192019AD3F8E02042F00402C3F8E0205B
:1019A000D3F8E02002F004020292029AD3F8E02079
:1019B00042F00202C3F8E020D3F8E03003F0020363
:1019C0000393039B0623359302273697002537950B
:1019D00038950526399635A9454802F01BFF4FF486
:1019E00000533593369737953895399635A9414840
:1019F00002F010FF4048414B03602723436085609D
:101A0000C5604FF48063036145618561C5614FF432
:101A100040330362456200F065FF38BB364BE36735
:101A20009C633748374B036028234360402383601F
:101A30000023C3604FF48062026143618361C3612C
:101A40004FF400320262436200F04CFF88B92C4B25
:101A5000A3679C6300220521242000F01FFD2420A1
:101A600000F02CFD7DE7FFF763FE86E7FFF760FEE1
:101A7000D4E7FFF75DFEEAE74FF480420023CDE9AB
:101A800006234FF0A043319306A803F0ADFE30BB10
:101A9000164BD3F8F42042F02002C3F8F420D3F818
:101AA000F42002F020020492049AD3F8E02042F0DD
:101AB0000102C3F8E020D3F8E03003F001030593FE
:101AC000059BA02335930223369300233793389345
:101AD0000823399335A90C4802F09CFE41E7FFF733
:101AE00027FED5E700380040001400580044025893
:101AF0000008025800040258700E00241000024032
:101B0000F80D0024280002400000025800B583B000
:101B10000A4BD3F8F42042F00202C3F8F420D3F8C1
:101B2000F43003F002030193019B00220F216FF0B8
:101B3000010000F0B3FC03B05DF804FB0044025860
:101B40000F2801D90120704710B58AB00446002241
:101B50000146372000F0A2FC372000F0AFFC1A4B02
:101B60001C601A4BD3F8E82042F02002C3F8E820AA
:101B7000D3F8E83003F020030093009B01A902A8EA
:101B800003F000FD079BBBB903F0D8FC0346104AE5
:101B9000A2FB03239B0C013B0E480F4A026040F25C
:101BA000E732C260436000230361836005F026FDD5
:101BB00030B101200AB010BD03F0C0FC4300E6E7DD
:101BC000044805F071FBF5E71C00002400440258AE
:101BD00083DE1B43F80F002400140040FEE7FEE7FD
:101BE000FEE7FEE7FEE7704708B5024801F06CFC2F
:101BF00008BD00BF700E002408B5024801F064FC67
:101C000008BD00BFF80D002408B5024801F05CFCD7
:101C100008BD00BF3811002408B5024801F054FC8B
:101C200008BD00BFC010002408B5024801F04CFCFC
:101C300008BD00BF4810002408B5024802F05AFC55
:101C400008BD00BF1009002408B5024802F052FC8C
:101C500008BD00BF7008002408B5024805F002FA6C
:101C600008BD00BF700F002408B5024805F08AFDCA
:101C700008BD00BF4412002408B5024805F082FDEB
:101C800008BD00BF6C13002408B5024805F060FBD6
:101C900008BD00BFF80F002408B5024805F072FD2A
:101CA00008BD00BFD812002408B5024805F06AFD3F
:101CB00008BD00BFB011002408B5024802F01AFCAC
:101CC00008BD00BFD00700240120704708B50AF006
:101CD00057FD162303604FF0FF3008BD08B54FF0E5
:101CE000FF31FFF7F3FFFEE770B50C4616460025FF
:101CF00006E0AFF30080214601F8010B01350C46E8
:101D0000B542F6DB304670BD70B50C461646002570
:101D100004E014F8010BAFF300800135B542F8DBA5
:101D2000304670BD4FF0FF3070474FF400534B60AA
:101D300000207047012070470020704710B503460F
:101D40000C4A0D490D48006840B10C480068034436
:101D5000521A934206D8094A136010BD0748084C2E
:101D60000460F2E70AF00CFD0C2303604FF0FF3033
:101D7000F3E700BF00000524000400004410002425
:101D800010960024224AD2F8883043F47003C2F837
:101D90008830204B1B6803F00F03062B06D81D4A22
:101DA000136823F00F0343F0070313601A4B1A68FC
:101DB00042F001021A6000221A611968174A0A40AB
:101DC0001A60144B1B6813F0080F06D0114A1368F1
:101DD00023F00F0343F0070313600F4B00229A61B7
:101DE000DA611A620E4999620E49D9620E49196385
:101DF0005A639963DA6319645A64196821F480217B
:101E000019601A66094B43F2D2021A60704700BF8C
:101E100000ED00E000200052004402587FEDF6EA99
:101E2000000202020000FF01800201010040005296
:101E300008B51A481A4B03601A4B43604FF480539D
:101E400083604FF40053C3604FF4806303610C233D
:101E5000436100238361C36103624362836206F0CE
:101E6000AAFB70B900210D4806F078FC60B900218A
:101E70000A4806F098FC50B9084806F050FC48B9EA
:101E800008BDFFF755FCEDE7FFF752FCEFE7FFF762
:101E90004FFCF1E7FFF74CFCF2E700BF6C130024A6
:101EA00000500040A086010008B51748174B03609A
:101EB0004FF4E133436000238360C36003610C226D
:101EC00042618361C36103624362836206F073FB14
:101ED00070B900210C4806F041FC60B900210A48A5
:101EE00006F061FC50B9084806F019FC48B908BD75
:101EF000FFF71EFCEDE7FFF71BFCEFE7FFF718FC11
:101F0000F1E7FFF715FCF2E7D81200240078004053
:101F100008B51748174B03604FF461234360002353
:101F20008360C36003610C2242618361C361036209
:101F30004362836206F03FFB70B900210C4806F053
:101F40000DFC60B900210A4806F02DFC50B9084884
:101F500006F0E5FB48B908BDFFF7EAFBEDE7FFF740
:101F6000E7FBEFE7FFF7E4FBF1E7FFF7E1FBF2E761
:101F7000441200240010014008B51748174B0360B5
:101F80004FF4E133436000238360C36003610C229C
:101F900042618361C36103624362836206F00BFBAB
:101FA00070B900210C4806F0D9FB60B900210A483D
:101FB00006F0F9FB50B9084806F0B1FB48B908BD76
:101FC000FFF7B6FBEDE7FFF7B3FBEFE7FFF7B0FB7B
:101FD000F1E7FFF7ADFBF2E7B0110024001C014070
:101FE000F0B5BFB00446002139913A913B913C9144
:101FF0003D91B8220AA80AF0E7FA2368954A93426D
:102000000CD0954A934276D0944A934200F0E680F1
:10201000934A934200F03C813FB0F0BD022200237E
:10202000CDE90A230AA803F0DFFB00285DD18D4B20
:10203000D3F8E82042F48012C3F8E820D3F8E8206F
:1020400002F480120192019AD3F8E02042F00402D7
:10205000C3F8E020D3F8E02002F004020292029AD2
:10206000D3F8E02042F00802C3F8E020D3F8E030D3
:1020700003F008030393039B4FF480533993022723
:102080003A9700253B953C9508263D9639A9764818
:1020900002F0C0FB042339933A973B953C953D965B
:1020A00039A9724802F0B6FB7148724B03604123B4
:1020B00043608560C5604FF480630361456185615D
:1020C000C5614FF440330362456200F00BFC78B900
:1020D000674BC4F880309C6300220521352000F056
:1020E000DDF9352000F0EAF996E7FFF721FB9EE7DE
:1020F000FFF71EFBECE702220023CDE90A230AA822
:1021000003F072FB002860D1564BD3F8E82042F070
:102110008042C3F8E820D3F8E82002F0804204921D
:10212000049AD3F8E02042F01002C3F8E020D3F87C
:10213000E03003F010030593059B4FF4C07339930F
:1021400002233A9300253B953C9507233D9339A9FB
:10215000494802F05FFB4948494B03604F23436005
:102160008560C5604FF48063036145618561C56129
:102170004FF440330362456200F0B4FB40BB3F4B79
:10218000C4F880309C633F483F4B0360502343605A
:10219000402383600023C3604FF480620261436187
:1021A0008361C3614FF440320262436200F09AFBE4
:1021B00088B9344BE3679C6300220521522000F06C
:1021C0006DF9522000F07AF926E7FFF7B1FA9BE7A4
:1021D000FFF7AEFAD3E7FFF7ABFAEAE701220023F5
:1021E000CDE90A230AA803F0FFFA78BB1D4BD3F808
:1021F000F02042F01002C3F8F020D3F8F02002F0F3
:1022000010020692069AD3F8E02042F00102C3F8C9
:10221000E020D3F8E03003F001030793079B4FF46D
:10222000C063399302233A9300243B943C940723E0
:102230003D9339A9154802F0EDFA224605212520E3
:1022400000F02CF9252000F039F9E5E6FFF770FAE7
:10225000CCE700BF00500040007800400010014073
:10226000001C01400044025800080258000C0258AB
:10227000381100244000024000100258C010002411
:10228000580002404810002470000240000002582C
:1022900001220023CDE90A230AA803F0A5FA0028A9
:1022A00039D11E4BD3F8F02042F08002C3F8F02061
:1022B000D3F8F02002F080020892089AD3F8E020C8
:1022C00042F01002C3F8E020D3F8E03003F010032E
:1022D0000993099B0423399302263A9600243B94E0
:1022E0003C943D930E4D39A9284602F093FA0823F9
:1022F00039933A963B943C940B233D9339A9284655
:1023000002F088FA224605219C2000F0C7F89C20A4
:1023100000F0D4F880E6FFF70BFAC2E70044025859
:1023200000100258DFF834D0FFF72CFD0C480D499F
:102330000D4A002302E0D458C4500433C4188C4220
:10234000F9D30A4A0A4C002301E013600432A24286
:10235000FBD30AF01BFAFFF741FA7047000005248F
:1023600000000024AC07002434340108B007002426
:1023700010960024FEE7000010B5032000F07CF862
:1023800002F074FE0F498B69C3F303230E4AD35C3A
:1023900003F01F03D8408B6903F00F03D35C03F0F5
:1023A0001F0320FA03F3094A1360094B18600F203A
:1023B000FFF7C6FB10B10124204610BD0446FFF70D
:1023C000A5FBF9E7004402581C2F01081000002467
:1023D00014000024034B1B78034A11680B4413605C
:1023E000704700BF1800002400140024014B186837
:1023F000704700BF00140024002807DB00F01F0214
:10240000400901239340024A42F82030704700BF40
:1024100000E100E0002804DB0901C9B2044B1954B3
:10242000704700F00F000901C9B2024B1954704700
:1024300000E400E014ED00E000B500F00700C0F19A
:10244000070CBCF1040F28BF4FF0040C031D062B32
:102450000FD9C31E4FF0FF3E0EFA0CF021EA000127
:1024600099400EFA03FE22EA0E0241EA02005DF8EC
:1024700004FB0023EEE700000649CB6823F4E06389
:102480001B041B0C000200F4E0600343024A1A43E1
:10249000CA60704700ED00E00000FA0510B5044680
:1024A000054BD868C0F30220FFF7C6FF014620465F
:1024B000FFF7B0FF10BD00BF00ED00E008B5FFF76B
:1024C0009BFF08BDF0B4876D0468664E664DAC4254
:1024D00018BFB44242D01835AC423FD01835AC4298
:1024E0003CD01835AC4239D01835AC4236D018350E
:1024F000AC4233D01835AC4230D005F55675AC42FD
:102500002CD01835AC4229D01835AC4226D018351D
:10251000AC4223D01835AC4220D01835AC421DD087
:102520001835AC421AD01835AC4217D04F4DAC42DA
:1025300014D01435AC4211D01435AC420ED0143541
:10254000AC420BD01435AC4208D01435AC4205D0A7
:102550001435AC4202D01435AC4207D1446E856EBE
:102560006560C46E14B1046F456F656004683D4ECC
:102570003D4DAC4218BFB44252D01835AC424FD09A
:102580001835AC424CD01835AC4249D01835AC4265
:1025900046D01835AC4243D01835AC4240D005F592
:1025A0005675AC423CD01835AC4239D01835AC42E7
:1025B00036D01835AC4233D01835AC4230D018354F
:1025C000AC422DD01835AC422AD01835AC4227D0B9
:1025D000264E274DAC4218BFB44211D0254DAC4217
:1025E0000ED01435AC420BD01435AC4208D01435A3
:1025F000AC4205D01435AC4202D01435AC4224D1E3
:10260000C46D04F01F050124AC407C600468636065
:102610008368402B20D0036899600368DA6014E077
:10262000C46D04F01F0C3F2404FA0CF4BC60056870
:102630002C6824F480242C60046863608368402B39
:1026400005D0036899600368DA60F0BC70470368DE
:102650009A600368D960F8E703689A600368D960F4
:10266000F3E700BF1000024028000240085402585F
:102670001C5402583054025803682749274A934291
:1026800018BF8B422FD0183293422CD0183293426D
:1026900029D01832934226D01832934223D01832D0
:1026A000934220D0183293421DD002F556729342C5
:1026B00019D01832934216D01832934213D01832E0
:1026C000934210D0183293420DD0183293420AD060
:1026D0001832934207D01832934204D023F0FF03FC
:1026E0008365806D704710B4D9B210390C4AA2FBD3
:1026F0000142C2F302120B4CA25CC2655F2907D9EA
:102700006FF3090304338365806D5DF8044B7047F4
:102710006FF309038365F7E71000024028000240C9
:10272000ABAAAAAA2C2F010883699BB9836A012B43
:102730000AD0022B02D00BB100207047C36A13F0FD
:10274000807F2AD100207047C36AB3F1C07F26D0B2
:1027500000207047B3F5005F0AD0836A022B26D9A8
:10276000032B26D1C36A13F0807F24D10020704749
:10277000836A032B03D8DFE803F01404140A002053
:102780007047C36A13F0807F0DD100207047C36A81
:10279000B3F1C07F09D000207047012070470120AD
:1027A00070470120704701207047012070470120C9
:1027B00070470020704701207047000003682149DE
:1027C000214A934218BF8B4227D01432934224D01F
:1027D0001432934221D0143293421ED014329342C9
:1027E0001BD01432934218D01432934215D0DAB26F
:1027F000103A1649A1FB0212120915491944A829D9
:102800001ED9144B13449B000366134B436602F01E
:102810001F020123934083667047DBB2083B0F4AD7
:10282000A2FB03230E4A02EB1312920002660D4A2A
:102830004266C3F30413012202FA03F3836670476E
:102840000832DEE7085402581C540258ABAAAAAA60
:10285000F0FBFDBF0082001080080240CDCCCCCC44
:10286000009600168058025801794A1E072A2BD874
:1028700030B40368154D164CA34218BFAB4218D0B4
:102880001434A34215D01434A34212D01434A342FA
:102890000FD01434A3420CD01434A34209D0143402
:1028A000A34206D00B4B0B449B00C3660A4B036745
:1028B00005E00A4B0B449B00C366094B03670123E9
:1028C0009340436730BC7047704700BF08540258BC
:1028D0001C5402583F820010400902403F960016E7
:1028E0004059025870B50446FFF780FD002C00F0F7
:1028F000B781054623685349534A934218BF8B4218
:102900000CBF0121002150D0183293424DD0183213
:1029100093424AD01832934247D01832934244D05F
:102920001832934241D0183293423ED002F556728B
:1029300093423AD01832934237D01832934234D06F
:102940001832934231D0183293422ED0183293422B
:102950002BD01832934228D01832934225D03B49CD
:102960003B4A934218BF8B4200F03281394A93426E
:1029700000F02E811432934200F02A8114329342E7
:1029800000F026811432934200F0228114329342E7
:1029900000F01E811432934200F01A8140236365D7
:1029A000032384F8353001204AE0022284F83520E0
:1029B000002284F8342079BB274A93422CD0183265
:1029C000934229D01832934226D01832934223D012
:1029D0001832934220D0183293421DD002F556721D
:1029E000934219D01832934216D01832934213D022
:1029F0001832934210D0183293420DD018329342BD
:102A00000AD01832934207D01832934204D01A6881
:102A100022F001021A6003E01A6822F001021A6033
:102A200023681A6812F0010F18D0FFF7DFFC431B70
:102A3000052BF5D920236365032384F83530012065
:102A400070BD00BF10000240280002400854025828
:102A50001C54025830540258400002401A68814900
:102A60001140A268E06802432069024360690243A2
:102A7000A0690243E0690243206A02430A43616A93
:102A8000042900F090806168522900F296803F2965
:102A9000C0F08E803F39744820FA01F111F0010F27
:102AA00001D042F480121A602668756925F0070586
:102AB000636A1D43042B08D1A36A1D43E36A23B153
:102AC0002046FFF731FE00287CD175612046FFF7D4
:102AD000D3FDE36D03F01F023F239340836023681F
:102AE0006249634A934218BF8B4242D018329342E4
:102AF0003FD0183293423CD01832934239D018322A
:102B0000934236D01832934233D01832934230D0A9
:102B100002F5567293422CD01832934229D01832C3
:102B2000934226D01832934223D01832934220D0B9
:102B3000183293421DD0183293421AD01832934261
:102B400017D04C4A934214D01432934211D014320D
:102B500093420ED0143293420BD01432934208D0D9
:102B60001432934205D01432934202D0143293426D
:102B700013D12046FFF722FEA368802B63D0236E7B
:102B800022791A60636EA26E5A606368013B072B5C
:102B90005CD90023E3662367636700206065012337
:102BA00084F835304CE7E16A206B01430A436AE759
:102BB000293905293FF677AF73E7743903293FF6C2
:102BC00072AF6EE740236365012084F8350037E774
:102BD000022284F83520002284F8342019686FF32B
:102BE0001011A268402A2CD0802A27D00022E06849
:102BF00042EAD002206942EAD002606942EAD00289
:102C0000A06942EAD002E06942EAD002206A42EAC0
:102C100010120A431A602268174B1344174AA2FB8A
:102C200003231B099B00E3652046FFF725FDE26DAA
:102C300002F01F0101228A40426050E74FF48042B7
:102C4000D5E71022D3E70023636098E72046FFF71B
:102C50000BFEE36E00221A60236F626F5A609CE7DE
:102C60000120EDE63F8010FE0F030F001000024030
:102C70002800024008540258F8ABFDA7CDCCCCCCBC
:102C8000002800F03E8170B5044690F83400012819
:102C900000F03981012084F8340094F83500C0B286
:102CA000012807D04FF400636365002384F83430B3
:102CB000012070BD022084F8350000206065206886
:102CC000924E934DA84218BFB0422FD01835A8425B
:102CD0002CD01835A84229D01835A84226D018354E
:102CE000A84223D01835A84220D01835A8421DD0BC
:102CF00005F55675A84219D01835A84216D01835D2
:102D0000A84213D01835A84210D01835A8420DD0CB
:102D10001835A8420AD01835A84207D01835A8425D
:102D200004D0056825F00105056003E0056825F07D
:102D3000010505602046FFF7C5FB23687349744A07
:102D4000934218BF8B4238D01832934235D0183294
:102D5000934232D0183293422FD0183293422CD063
:102D60001832934229D01832934226D002F5567277
:102D7000934222D0183293421FD0183293421CD073
:102D80001832934219D01832934216D01832934217
:102D900013D01832934210D0183293420DD01A68D3
:102DA00022F00E0242F00A021A60236C93B12268EC
:102DB000136843F0040313600CE01A6822F01E024B
:102DC00042F016021A60236C23B12268136843F0A4
:102DD0000803136023684D494D4A934218BF8B4244
:102DE00042D0183293423FD0183293423CD018322E
:102DF000934239D01832934236D01832934233D0AE
:102E00001832934230D002F5567293422CD01832C9
:102E1000934229D01832934226D01832934223D0BD
:102E20001832934220D0183293421DD01832934268
:102E30001AD01832934217D0364A934214D0143223
:102E4000934211D0143293420ED0143293420BD0DD
:102E50001432934208D01432934205D01432934274
:102E600002D0143293420ED1236E1A6812F4803FBE
:102E700003D01A6842F480721A60E36E1BB11A68BC
:102E800042F480721A6023682049214A934218BF95
:102E90008B4230D0183293422DD0183293422AD030
:102EA0001832934227D01832934224D018329342DA
:102EB00021D0183293421ED002F5567293421AD096
:102EC0001832934217D01832934214D018329342DA
:102ED00011D0183293420ED0183293420BD01832D0
:102EE000934208D01832934205D01A6842F001028A
:102EF0001A600020DDE61A6842F001021A60002024
:102F0000D7E6012070470220D3E600BF1000024040
:102F1000280002400854025870B50446FFF766FACC
:102F2000002C00F09181054694F83530DBB2022B7D
:102F300006D080236365002384F83430012070BDFF
:102F400023688C498C4A934218BF8B4230D0183288
:102F500093422DD0183293422AD01832934227D070
:102F60001832934224D01832934221D0183293421F
:102F70001ED002F5567293421AD01832934217D0DF
:102F80001832934214D01832934211D0183293421F
:102F90000ED0183293420BD01832934208D0183218
:102FA000934205D01A6822F00E021A60266809E0E2
:102FB0001A6822F01E021A602268536923F0800307
:102FC0005361266823686B496B4A934218BF8B4252
:102FD00042D0183293423FD0183293423CD018323C
:102FE000934239D01832934236D01832934233D0BC
:102FF0001832934230D002F5567293422CD01832D8
:10300000934229D01832934226D01832934223D0CB
:103010001832934220D0183293421DD01832934276
:103020001AD01832934217D0544A934214D0143213
:10303000934211D0143293420ED0143293420BD0EB
:103040001432934208D01432934205D01432934282
:1030500002D01432934204D1226E136823F4807399
:10306000136023684349444A934218BF8B422FD0D0
:10307000183293422CD01832934229D018329342FE
:1030800026D01832934223D01832934220D01832DF
:1030900093421DD002F55672934219D018329342D2
:1030A00016D01832934213D01832934210D01832EF
:1030B00093420DD0183293420AD01832934207D06F
:1030C0001832934204D01A6822F001021A6003E019
:1030D0001A6822F001021A60336813F0010F0ED053
:1030E000FFF784F9431B052BF6D9202363650323DF
:1030F00084F83530002384F8343001201FE723683A
:103100001C491D4A934218BF8B4239D01832934252
:1031100036D01832934233D01832934230D018321E
:1031200093422DD0183293422AD01832934227D09E
:1031300002F55672934223D01832934220D01832AF
:1031400093421DD0183293421AD01832934217D0AE
:103150001832934214D01832934211D0183293424D
:103160000ED0A16DE36D03F01F02012393404B606D
:103170000DE000BF10000240280002400854025831
:10318000A16DE36D03F01F023F2393408B60236822
:103190002E492F4A934218BF8B4242D01832934295
:1031A0003FD0183293423CD01832934239D0183273
:1031B000934236D01832934233D01832934230D0F3
:1031C00002F5567293422CD01832934229D018320D
:1031D000934226D01832934223D01832934220D003
:1031E000183293421DD0183293421AD018329342AB
:1031F00017D0184A934214D01432934211D014328B
:1032000093420ED0143293420BD01432934208D022
:103210001432934205D01432934202D014329342B6
:103220000BD1636EA26E5A60E36E33B11A6822F45A
:1032300080721A60236F626F5A60012384F8353000
:10324000002084F834007AE6012078E6100002407D
:103250002800024008540258002800F0288108B5D0
:10326000024690F83530DBB2022B03D08023436551
:10327000012008BD0368904890498B4218BF8342E3
:103280000CBF0120002065D018318B4262D018316C
:103290008B425FD018318B425CD018318B4259D0B1
:1032A00018318B4256D018318B4253D001F55671EC
:1032B0008B424FD018318B424CD018318B4249D0C1
:1032C00018318B4246D018318B4243D018318B4293
:1032D00040D018318B423DD018318B423AD019681A
:1032E00021F00E0119601368734874498B4218BFAE
:1032F00083426AD072498B4267D018318B4264D0C6
:1033000018318B4261D018318B425ED018318B421C
:103310005BD018318B4258D001F556718B4254D096
:1033200018318B4251D018318B424ED018318B421C
:103330004BD018318B4248D018318B4245D01831D0
:103340008B4242D018318B423FD0196821F00101E5
:1033500019603EE0042182F8351080BB584A934240
:103360002DD0183293422AD01832934227D01832E7
:10337000934224D01832934221D0183293421ED067
:1033800002F5567293421AD01832934217D018326F
:10339000934214D01832934211D0183293420ED077
:1033A000183293420BD01832934208D0183293420D
:1033B00005D01A6822F001021A60002059E71A6845
:1033C00022F001021A60002053E7196821F0010180
:1033D00019601368384839498B4218BF834242D07C
:1033E00018318B423FD018318B423CD018318B4280
:1033F00039D018318B4236D018318B4233D0183146
:103400008B4230D001F556718B422CD018318B4253
:1034100029D018318B4226D018318B4223D0183155
:103420008B4220D018318B421DD018318B421AD0DC
:1034300018318B4217D023498B4214D014318B4260
:1034400011D014318B420ED014318B420BD0143179
:103450008B4208D014318B4205D014318B4202D0FC
:1034600014318B4217D1116E0B6823F480730B60FB
:10347000906DD36D03F01F0101238B404360536EA9
:10348000916E5960D36E33B1196821F4807119605F
:10349000136F516F5960012382F83530002382F891
:1034A0003430136D2BB1104698470020E1E601201F
:1034B00070470020DDE600BF1000024028000240F7
:1034C0004000024008540258F0B583B0044600237F
:1034D00001937D4B1D687D4BA3FB0535AD0A876DC0
:1034E0003E68D7F800C0036879497A48834218BF1C
:1034F0008B420CBF0120002061D0774A93425ED0FE
:10350000183293425BD01832934258D0183293420B
:1035100055D01832934252D0183293424FD002F510
:10352000567293424BD01832934248D0183293428D
:1035300045D01832934242D0183293423FD01832CD
:1035400093423CD01832934239D01832934236D04D
:103550006249634A934218BF8B4212D0614A934238
:103560000FD0143293420CD01432934209D014324B
:10357000934206D01432934203D01432934240F067
:1035800061821A68E16D01F01F010420884010EA91
:103590000C0F00F0A78212F0040F00F0A3827860F5
:1035A00012F4004F00F05A8212F4803F40F0508233
:1035B000A36C002B00F046822046984742E2E26D61
:1035C00002F01F0108228A40324241D070BB424AB9
:1035D00093422BD01832934228D01832934225D0F0
:1035E0001832934222D0183293421FD0183293429D
:1035F0001CD002F55672934218D01832934215D05F
:103600001832934212D0183293420FD0183293429C
:103610000CD01832934209D01832934206D0183297
:10362000934203D01A68C2F3C00202E01A68C2F3E0
:1036300080026AB11A6822F004021A60E36D03F096
:103640001F0208239340BB60636D43F00103636571
:10365000E26D02F01F0226FA02F313F0010F47D0C9
:1036600023681B481B498B4218BF83423CD018314A
:103670008B4239D018318B4236D018318B4233D03F
:1036800018318B4230D018318B422DD018318B42FB
:103690002AD001F556718B4226D018318B4223D0A7
:1036A00018318B4220D018318B421DD018318B42FB
:1036B0001AD018318B4217D018318B4214D01831E0
:1036C0008B4211D01B6813E014000024B5814E1BFF
:1036D00010000240280002404000024008540258F6
:1036E0001C540258305402585B6913F0800F3BD1D0
:1036F000E36D03F01F03042202FA03F333423FD0C9
:103700002268964896498A4218BF824234D01831BE
:103710008A4231D018318A422ED018318A422BD0B9
:1037200018318A4228D018318A4225D018318A426D
:1037300022D001F556718A421ED018318A421BD020
:1037400018318A4218D018318A4215D018318A426D
:1037500012D018318A420FD018318A420CD0183159
:103760008A4209D013680BE001239340BB60636D6C
:1037700043F002036365BBE7126812F0020F3DD10C
:10378000E36D03F01F03102202FA03F333425FD00C
:103790002268724872498A4218BF824234D0183176
:1037A0008A4231D018318A422ED018318A422BD029
:1037B00018318A4228D018318A4225D018318A42DD
:1037C00022D001F556718A421ED018318A421BD090
:1037D00018318A4218D018318A4215D018318A42DD
:1037E00012D018318A420FD018318A420CD01831C9
:1037F0008A4209D01268C2F3800208E0BB60636DA0
:1038000043F004036365BBE71268C2F3C002FAB178
:10381000BB6023681A6812F4802F0DD01B6813F464
:10382000002F04D1236C9BB12046984710E0A36C75
:1038300073B1204698470BE01A6812F4807F03D1D9
:103840001A6822F008021A60236C0BB120469847D0
:10385000E36D03F01F03202202FA03F3334200F06A
:10386000938022683D483E498A4218BF82422ED04A
:1038700018318A422BD018318A4228D018318A4216
:1038800025D018318A4222D018318A421FD01831EF
:103890008A421CD001F556718A4218D018318A42EA
:1038A00015D018318A4212D018318A420FD01831FF
:1038B0008A420CD018318A4209D018318A4206D087
:1038C00018318A4203D01268C2F3400202E0126843
:1038D000C2F30012002A57D0BB6094F83530DBB237
:1038E000042B0ED023681A6812F4802F3AD01B687C
:1038F00013F4002F2DD1636C002B45D02046984740
:1039000042E02268136823F01603136022685369AB
:1039100023F080035361236CBBB12268136823F04A
:1039200008031360E36D03F01F023F239340BB6065
:10393000012384F83530002384F83430236D002BC4
:1039400000F08080204698477CE0A36C002BE4D1F7
:10395000E8E7E36BC3B12046984715E0100002404A
:10396000280002401A6812F4807F09D11A6822F0F8
:1039700010021A60012384F83530002384F83430B3
:10398000E36B0BB120469847636D002B5AD0636DF3
:1039900013F0010F52D0042384F835302368964980
:1039A000964A934218BF8B422FD0183293422CD0A4
:1039B0001832934229D01832934226D018329342BB
:1039C00023D01832934220D0183293421DD002F5F2
:1039D0005672934219D01832934216D0183293423D
:1039E00013D01832934210D0183293420DD01832AF
:1039F00093420AD01832934207D01832934204D02F
:103A00001A6822F001021A6003E01A6822F001022B
:103A10001A60019B01330193AB4204D823681B68F1
:103A200013F0010FF5D123681B6813F0010F0BD0C1
:103A3000032384F83530002384F83430E36C0BB171
:103A40002046984703B0F0BD012384F83530F2E7F3
:103A5000236C002BF6D020469847F3E712F0200F96
:103A60003AD123686449654A934218BF8B422FD0EC
:103A7000183293422CD01832934229D018329342F4
:103A800026D01832934223D01832934220D01832D5
:103A900093421DD002F55672934219D018329342C8
:103AA00016D01832934213D01832934210D01832E5
:103AB00093420DD0183293420AD01832934207D065
:103AC0001832934204D01A6822F004021A6003E00C
:103AD0001A6822F008021A60236C002BB2D020462C
:103AE0009847AFE70220884010EA0C0F60D012F030
:103AF000020F5DD0786012F4004F0ED012F4803FB8
:103B000005D1636C002B9DD0204698479AE7E36B64
:103B1000002B97D02046984794E712F0200F40D111
:103B200023683549354A934218BF8B422FD018324B
:103B300093422CD01832934229D01832934226D087
:103B40001832934223D01832934220D01832934235
:103B50001DD002F55672934219D01832934216D0F6
:103B60001832934213D01832934210D01832934235
:103B70000DD0183293420AD01832934207D018322F
:103B8000934204D01A6822F00A021A6003E01A680D
:103B900022F014021A60012384F83530002384F8DF
:103BA0003430E36B002B3FF44DAF2046984749E794
:103BB000082000FA01F111EA0C0F3FF443AF12F0B4
:103BC000080F3FF43FAF1A6822F00E021A60E36D4F
:103BD00003F01F03012202FA03F37B60626584F89D
:103BE0003520002384F83430E36C002B3FF42AAFF7
:103BF0002046984726E700BF1000024028000240F8
:103C000030B4416B0468D4F884306F4A134043EAFF
:103C10008103C4F884300468D4F8843023F47F032B
:103C2000856B43EA0543C4F88430836B0B44046816
:103C3000D4F88810114041EA8301C4F88810046860
:103C4000D4F8881021F4FE01C56B41EA0541C4F89F
:103C50008810C16B03EB41030468D4F8A010114035
:103C600041EA8301C4F8A0100468D4F8A01021F43C
:103C7000FE01056C41EA0541C4F8A010016C446CDA
:103C800004FB01330468D4F8B010114041EA830109
:103C9000C4F8B0100468D4F8B01021F4FE01856CAB
:103CA00041EA0541C4F8B010816CC46C04FB0133D7
:103CB0000468D4F8AC10114041EA8301C4F8AC1098
:103CC000016D446D04FB01330468D4F8F010114019
:103CD00041EA8301C4F8F0100468D4F8F01021F42C
:103CE0007C11856D41EA0541C4F8F010816D03EB4C
:103CF00041030468D4F8C0100A4042EA8303C4F8C0
:103D0000C0300268D2F8C03023F47C13C16D43EA9E
:103D10000143C2F8C0300268D2F8C03023F07C53AF
:103D2000016E43EA0163C2F8C030436B274A1A446C
:103D30009200C266836B02EB83030367C16B03EBE4
:103D4000C1034367016C446C04FB01F103EB810385
:103D50008367816CC46C04FB01F103EB8103C367CF
:103D6000016D446D04FB01F103EB8103C0F8803069
:103D7000816D03EBC103C0F88430816EC46D01FB1B
:103D800004FC03EB8C03C0F88830046E04FB01F1E3
:103D900003EB8103C0F890300D498B420DD9D0F868
:103DA0009C3043F02003C0F89C30032380F8983007
:103DB000012007E0002342F8043BD0F89030934202
:103DC000F8D8002030BC70470300FFFF002B001024
:103DD000FCD3004070B54C68FCB90D698C68254374
:103DE0000C6845EA84450E6ACC6944EA06648E692B
:103DF00034434E693443CE6844EA0644D0F88460C4
:103E0000806E00FB03F306EB830E46F82350CEF8DA
:103E100004400EF1080E002019E00C698D6825435E
:103E20000C68254345F08045DDE702EB000C9CF86B
:103E300003409CF802301B0443EA04639CF80140F1
:103E400043EA0423145C23434EF8043B0430CB685C
:103E5000024CE35C8342E8D870BD00BF342F0108F8
:103E600030B595B004464C22A04901A8FCF76EFC81
:103E7000002C00F0388123689D4A934220D094F8AA
:103E800098300BB32268936923F010039361FEF717
:103E9000ADFA054623689A6912F0080F1AD0FEF7AA
:103EA000A5FA431B0A2BF5D9D4F89C3043F0010343
:103EB000C4F89C30032384F89830012015B030BD3D
:103EC00003F580736360DAE784F899302046FDF7E4
:103ED00097F9D7E79A6942F001029A61FEF786FAEC
:103EE000054623689A6912F0010F0FD1FEF77EFA9A
:103EF000401B0A28F5D9D4F89C3043F00103C4F8DC
:103F00009C30032384F898300120D7E79A6942F067
:103F100002029A61237C012B40D02268936943F00E
:103F200040039361637C012B3ED02268936923F4A4
:103F300080439361A37C012B3CD02268936943F4B6
:103F4000805393612268936923F44073A1680B4303
:103F500093612268936923F0A40393612268136933
:103F600023F010031361E368012B29D0002B2CD020
:103F7000022B00F09B802268936943F080039361D9
:103F80002268136943F010031361E368032B1CD10B
:103F90002268936943F02003936116E022689369D5
:103FA00023F040039361BDE72268936943F48043A3
:103FB0009361BFE72268936923F480539361C1E75B
:103FC0002268936943F004039361A3695A1EE3696D
:103FD000013B1B0243EA4263226A013A13436269CE
:103FE000013A216843EA0243CB61A368B3F5407FFD
:103FF00062D0236E33B12268D2F8C030616E0B43B9
:10400000C2F8C030E36D226ED3420DD02168D1F8E2
:10401000C83023F00703A26E14A800EB820252F806
:104020004C2C1343C1F8C830236C6BB12168D1F814
:10403000BC3023F00703626C14A800EB820252F834
:104040004C2C1343C1F8BC30A36C73B12168D1F878
:10405000BC3023F07003E26C14A800EB820252F82B
:104060004C2C43EA0213C1F8BC30236D73B12168B4
:10407000D1F8BC3023F4E063626D14A800EB820237
:1040800052F84C2C43EA0223C1F8BC302268184B8A
:104090009A4222D00023C4F89430C4F89C30012303
:1040A00084F898302046FFF7ABFD07E72268936954
:1040B00043F02003936188E7A36A013BE26A013A77
:1040C00043EA0223226B013A43EA0213626A013A8D
:1040D000216843EA0243CB608BE76268936823F070
:1040E00003039360D6E70120E8E600BF802C0108B7
:1040F00000A0004090F89830013BDBB2012B07D9BB
:10410000D0F89C3043F00203C0F89C300120704787
:104110000B68DBB9CB68072B0ED08A68DB0643EA55
:1041200082730A6943EA02434A691343C26E4968CB
:1041300042F82130002070470A69CB691B0243EA2C
:1041400002438A69134343F06053EFE710B4CA682F
:104150000B6943EA4273072A0FD04A698C6842EA26
:104160008472006F496800EBC10C40F83130CCF824
:10417000042000205DF8044B70478A69F1E790F84D
:1041800098C05FFA8CFCBCF1010F07D0D0F89C30CE
:1041900043F00403C0F89C3001207047920042EACB
:1041A000011242EA43030168009A1A43C1F88020D1
:1041B0000020704790F89830DBB2012B07D0D0F880
:1041C0009C3043F00403C0F89C3001207047022368
:1041D00080F898300268936923F00103936100230B
:1041E000C0F89C301846704738B5044690F89830AF
:1041F000DBB2022B2BD10368D3F8C00010F07C5F38
:104200000CD0D3F8C40010F4001F0FD0D4F89C30A9
:1042100043F40073C4F89C3001201FE0D4F89C30B4
:1042200043F02003C4F89C30012017E0D3F8C450B9
:10423000C5F304452B462046FFF7CCFD2268012339
:10424000AB40C2F8D030C4F89430002006E0D0F87B
:104250009C3043F00803C0F89C30012038BD0000BA
:1042600090F898C05FFA8CFCBCF1020F40F0DF8040
:1042700070B540290CD041293DD0046D8C426DD8D9
:10428000D0F89C3043F02003C0F89C300120C1E0FE
:104290000468D4F8A05015F4FE0F0CD0D4F8A45044
:1042A00015F07F0F0FD1D0F89C3043F48073C0F825
:1042B0009C300120AEE0D0F89C3043F02003C0F8E1
:1042C0009C300120A6E0D4F8A46016F0807604D0DB
:1042D000D4F8A050002D0CDB0026D4F8A440C4F381
:1042E00005242644456F446C06FB04F405EB840E5C
:1042F0003BE00126F1E70468D4F8B05015F4FE0F56
:104300000CD0D4F8B45015F07F0F0FD1D0F89C30FA
:1043100043F48073C0F89C3001207BE0D0F89C30DF
:1043200043F02003C0F89C30012073E0D4F8B4605F
:1043300016F0807604D0D4F8B050002D0CDB0026A7
:10434000D4F8B440C4F305242644856FC46C06FB3E
:1043500004F405EB840E08E00126F1E7C56F446D17
:1043600001FB04F405EB840E0026DEF8004004F0A7
:104370008044546064BBDEF80040C4F38A44146097
:10438000DEF8004004F000549460DEF8004004F0D1
:1043900000441461BEF80440D461BEF8064004F045
:1043A0000F04D460DEF8044004F480145461DEF895
:1043B000044004F4001494619EF8074004F07F0464
:1043C0001462DEF80440E40F54624FF0000C0CE07D
:1043D000DEF8004024F060441460D1E70EEB0C04DA
:1043E000247A03F80C400CF1010CD468144D2C5DB8
:1043F0006445F3D8402909D041290CD01F290ED893
:10440000026801238B40C2F8983002E00368C3F8C9
:10441000A860002070BD0368C3F8B860F9E701F038
:104420001F01026801238B40C2F89C30F1E7D0F8ED
:104430009C3043F00803C0F89C300120704700BF57
:10444000342F010890F89830013BDBB2012B07D9DB
:10445000D0F89C3043F00203C0F89C300120704734
:1044600010B403689C6D0C4224D1DC6D44F001044F
:10447000DC6511F4007F05D00468D4F8E030134304
:10448000C4F8E03011F4806F05D00468D4F8E4304B
:104490001343C4F8E4300068436D0C4A0A401343E8
:1044A00043650B4A536943EA9173536100205DF8F9
:1044B000044B70479C6D31EA040402D00324DC6590
:1044C000D7E7DC6D44F00204DC65D2E7FFFFCF3FA5
:1044D00000A80040704770477047704770477047AA
:1044E0007047704770477047704770477047704714
:1044F000704770472DE9F04F83B00446904B1A691E
:104500005B69134001939B07009303681A6D02F4E3
:10451000704A5A6D0AEA020A1A6D02F00F095A6DC2
:1045200009EA02091A6D02F0F0085A6D08EA020859
:104530001E6D06F071565A6D16401F6D07F06077BC
:104540005A6D17405D6DD3F850B015F4807F02D0DE
:104550001BF4807F64D115F4806F02D01BF4806F50
:1045600067D1009B002B74D1BAF1000F7ED1B9F155
:10457000000F40F08780B8F1000F40F08F8015F4F5
:10458000006F03D01BF4006F40F0948015F4007F9F
:1045900003D01BF4007F40F0988015F4002F03D067
:1045A0001BF4002F40F0A18015F4803F03D01BF4D2
:1045B000803F40F0A58015F4802F03D01BF4802F9E
:1045C00040F0A98015F4003F0FD01BF4003F0CD041
:1045D00023684FF400321A65594B00221A61D4F84F
:1045E0009C3043F08003C4F89C30002F40F09E8044
:1045F0004EB123681E65B20F514B1A61D4F89C303E
:104600003343C4F89C3022684E4B9A4200F09C80A1
:10461000D4F89C30002B40F0F98003B0BDE8F08F57
:104620004FF480721A65464B00221A61FFF75BFF58
:1046300091E72368D3F8DC10D3F8E4204FF48060CE
:1046400018653F4B0020186111402046FFF747FFD7
:1046500087E7236800221A65019B03F00303384AA9
:10466000136100992046FFF735FF7DE72368C3F803
:1046700050A04FEA9A72324B1A6151462046FFF71A
:104680002AFF74E72368C3F850904FEA99722C4BC5
:104690001A614946204606F0D1FC6CE72368C3F84E
:1046A00050804FEA9872264B1A6141462046FFF728
:1046B00013FF64E723684FF400621A65204B002261
:1046C0001A612046FFF709FF60E72368D3F8D81086
:1046D000D3F8E0204FF400701865194B00201861E2
:1046E00011402046FFF7FAFE57E723684FF40022F7
:1046F0001A65134B00221A612046FFF7F1FE53E7BB
:1047000023684FF480321A650D4B00221A6120464F
:10471000FFF7E7FE4FE723684FF480221A65084B46
:1047200000221A612046FFF7DDFE4BE723681F6574
:10473000BA0F034B1A6139462046FFF7D6FE57E7FA
:1047400000A8004000A0004063689A6812F0030FC0
:104750003FF45EAF196A01F00F015A6A186A00F05F
:104760003008586A08EA00081F6A07F4C077586AD8
:1047700007401E6A06F4FC46586A06401D6A05F4A6
:10478000F025586A0540D3F82490D3F820A01140B2
:104790001CD1B8F1000F1ED119F0400F02D01AF051
:1047A000400F20D15FBB36B163681E62D4F89C30E5
:1047B0003343C4F89C30002D3FF42AAF63681D6278
:1047C000D4F89C302B43C4F89C3021E71962204672
:1047D000FFF78CFEDDE76368C3F820804146204682
:1047E000FFF785FED8E76368D96BDA6B4020186263
:1047F00002F03F02090C2046FFF77AFED2E7636819
:104800001F6239462046FFF774FECCE72046FFF7CB
:104810006BFE02E7F0B583B000236BE085685E00B5
:104820000324B44025EA0405CC68B4402C438460DA
:10483000456825EA0C054C68C4F300149C402C43E1
:10484000446069E0DD08083550F8254003F0070CA6
:104850004FEA8C0C4FF00F0E0EFA0CFE24EA0E0EEF
:104860000C6904FA0CF444EA0E0440F825406BE0AD
:10487000092400E0002404FA0EF42C430CF1020C8D
:10488000664D45F82C404FF0B0442568D44325EAE6
:1048900002064F6817F4801F01D042EA05064FF068
:1048A000B0452E606D6804EA05064F6817F4001FD6
:1048B00001D042EA05064FF0B0456E60D5F884504D
:1048C00004EA05064F6817F4003F01D042EA0506E6
:1048D0004FF0B045C5F88460D5F880502C404E6844
:1048E00016F4803F01D042EA05044FF0B042C2F80E
:1048F000804001330A6832FA03F400F08C804FF0F4
:10490000010C0CFA03FC1CEA0202F2D04C6804F021
:104910000304013C012C81D94C6804F00304032CEE
:104920000CD0C4685D004FF0030C0CFA05FC24EABF
:104930000C0C8C68AC4044EA0C04C4604C6804F075
:104940000304022C3FF47EAF04684FEA430E4FF09D
:10495000030C0CFA0EFC24EA0C0C4C6804F0030463
:1049600004FA0EF444EA0C0404604C6814F4403F6A
:10497000BFD02B4CD4F8F45045F00205C4F8F450E5
:10498000D4F8F44004F002040194019C4FEA930C23
:104990000CF10205214C54F8255003F0030E4FEAA8
:1049A0008E0E0F2404FA0EF425EA04051D4CA042D5
:1049B0003FF460AF04F58064A0421ED004F580642B
:1049C000A0421CD004F58064A0421AD004F5806493
:1049D000A04218D004F58064A04216D004F580648B
:1049E000A04214D004F58064A04212D004F5006403
:1049F000A0423FF43DAF0A243DE701243BE70224F7
:104A000039E7032437E7042435E7052433E7062490
:104A100031E707242FE703B0F0BD00BF00040058C2
:104A200000440258000002580AB18161704709042D
:104A300081617047134BDB6813F0040F07D1114BF2
:104A4000DB6803F0070383421AD00120704710B5DA
:104A50000C4AD36823F007030343D360FDF7C6FC79
:104A60000446084B5B6813F4005F07D1FDF7BEFCFA
:104A7000001BB0F57A7FF4D9012000E0002010BDC2
:104A80000020704700480258002800F0D58238B551
:104A90000446036813F0010F25D0A04A136903F000
:104AA0003803926A102B15D0182B0FD06368B3F51A
:104AB000803F3FD0002B53D1984B1A6822F48032AC
:104AC0001A601A6822F480221A6038E002F00302A9
:104AD000022AEBD1914B1B6813F4003F03D06368AB
:104AE000002B00F0AB82236813F0020F00F08880E7
:104AF0008A4A1369926A13F038035AD0182B55D09A
:104B0000E368002B00F0A98084490A6822F01902AA
:104B100013430B60FDF76AFC0546804B1B6813F0DE
:104B2000040F40F09180FDF761FC401B0228F4D98E
:104B300003208AE2794A136843F480331360636880
:104B40002BB3FDF753FC0546744B1B6813F4003F71
:104B5000C9D1FDF74BFC401B6428F5D9032074E252
:104B6000B3F5A02F09D06D4B1A6822F480321A6079
:104B70001A6822F480221A60E1E7684B1A6842F44E
:104B800080221A601A6842F480321A60D7E7FDF773
:104B90002DFC0546614B1B6813F4003FA3D0FDF7C5
:104BA00025FC401B6428F5D903204EE212F0030FC8
:104BB000A6D15A4B1B6813F0040F03D0E368002BF7
:104BC00000F03E82554A136823F01903E1680B4355
:104BD0001360FDF70BFC0546504B1B6813F0040FE8
:104BE00006D1FDF703FC401B0228F5D903202CE277
:104BF0004A4A536823F0FE43216943EA0163536044
:104C0000236813F0100F51D0444A136903F038039E
:104C1000926A082B39D0182B33D0E369002B69D066
:104C20003E4A136843F080031360FDF7DFFB05463F
:104C30003A4B1B6813F4807F53D1FDF7D7FB401B21
:104C40000228F5D9032000E2344A536823F0FE43DA
:104C5000216943EA01635360D2E7304A136823F0C5
:104C600001031360FDF7C2FB05462C4B1B6813F0D4
:104C7000040FC5D0FDF7BAFB401B0228F5D903206D
:104C8000E3E102F00302012AC7D1244B1B6813F4AD
:104C9000807F03D0E369802B40F0D4811F4AD36822
:104CA00023F07C53216A43EA0163D360236813F045
:104CB000080F49D06369002B32D0184A536F43F074
:104CC00001035367FDF792FB0546144B5B6F13F02E
:104CD000020F39D1FDF78AFB401B0228F5D90320CA
:104CE000B3E10E4AD36823F07C53216A43EA01639F
:104CF000D360DBE7094A136823F080031360FDF7F4
:104D000075FB0546054B1B6813F4807FCED0FDF77D
:104D10006DFB401B0228F5D9032096E100440258A0
:104D20009D4A536F23F001035367FDF75FFB054670
:104D3000994B5B6F13F0020F06D0FDF757FB401B3A
:104D40000228F5D9032080E1236813F0200F29D031
:104D5000A3699BB1904A136843F480531360FDF735
:104D600045FB05468C4B1B6813F4005F1AD1FDF719
:104D70003DFB401B0228F5D9032066E1864A1368F3
:104D800023F480531360FDF731FB0546824B1B680B
:104D900013F4005F06D0FDF729FB401B0228F5D96C
:104DA000032052E1236813F0040F21D1636A002B22
:104DB00000F04A81784A126902F03802182A00F09D
:104DC000F180022B75D0744A136823F0807313604E
:104DD000FDF70CFB0446704B1B6813F0007F00F0DE
:104DE000D880FDF703FB001B0228F4D903202CE137
:104DF0006A4A136843F480731360FDF7F7FA0546B7
:104E0000664B1B6813F4807F06D1FDF7EFFA401B59
:104E10006428F5D9032018E1A368012B0AD00BBB45
:104E20005D4B1A6F22F001021A671A6F22F004021A
:104E30001A6704E0584A136F43F001031367A3682D
:104E400033B3FDF7D3FA0546534B1B6F13F0020F34
:104E5000ACD1FDF7CBFA401B41F288339842F3D92D
:104E60000320F2E0052B09D04B4B1A6F22F0010210
:104E70001A671A6F22F004021A67E0E7464B1A6FAE
:104E800042F004021A671A6F42F001021A67D6E76D
:104E9000FDF7ACFA0546404B1B6F13F0020F85D0AF
:104EA000FDF7A4FA401B41F288339842F3D903205E
:104EB000CBE0394A136823F080731360FDF796FA4C
:104EC0000546354B1B6813F0007F06D0FDF78EFAC0
:104ED000401B0228F5D90320B7E02F4B996A304ACE
:104EE0000A40A16AE06A41EA00110A439A62226B11
:104EF000013AC2F30802616B0139490289B20A43DF
:104F0000A16B0139090401F4FE010A43E16B013987
:104F1000090601F0FE410A431A63DA6A22F001022F
:104F2000DA625A6B6FF3CF02A16C42EAC1025A6394
:104F3000DA6A22F00C02216C0A43DA62DA6A22F0A1
:104F40000202616C0A43DA62DA6A42F48032DA629F
:104F5000DA6A42F40032DA62DA6A42F48022DA6211
:104F6000DA6A42F00102DA621A6842F080721A606C
:104F7000FDF73CFA0446084B1B6813F0007F06D18E
:104F8000FDF734FA001B0228F5D903205DE000206C
:104F90005BE0002059E000BF00440258004802587E
:104FA0000CFCFFFF30498A6A086B012B4ED002F0DF
:104FB0000303A16A8B424BD1C2F30512E36A9A4202
:104FC00048D1C0F30802236B013B9A4244D1C0F39D
:104FD0004622636B013B9A4240D1C0F30642A36B69
:104FE000013B9A423CD1C0F30660E36B013B98421F
:104FF00038D11D4B5B6BC3F3CC03A26C9A4201D139
:10500000002022E0184AD36A23F00103D362FDF79F
:10501000EDF90546FDF7EAF9A842FBD0124A536BB9
:105020006FF3CF03A16C43EAC1035363D36A43F028
:105030000103D362002008E001207047012004E052
:10504000012002E0012000E0002038BD0120FCE743
:105050000120FAE70120F8E70120F6E70120F4E754
:105060000120F2E70120F0E700440258754B1B696C
:1050700003F03803102B00F0DE80182B0FD0002B2C
:1050800040F0DB806F4B1B6813F0200F00F0D780DF
:105090006C4B1B68C3F3C1036B48D840704710B416
:1050A000684B9A6A02F003029C6AC4F30510D96A3D
:1050B00001F001015B6BC3F3CC0301FB03F307EECB
:1050C000903AF8EE677A14F47C7F77D0012A4AD0C0
:1050D000022A76D0002A40F091805A4B1B6813F0C8
:1050E000200F23D057490A68C2F3C102564BD34060
:1050F00007EE103AF8EE476A07EE100AB8EE476A74
:1051000086EE867A0B6BC3F3080306EE903AF8EE50
:10511000666A9FED4E6A67EE867A76EEA77AF7EEBC
:10512000006A77EEA67A27EE277A38E007EE100AB3
:10513000F8EE476A9FED466A86EE267A414B1B6B76
:10514000C3F3080306EE903AF8EE666A9FED3F6AF5
:1051500067EE867A76EEA77AF7EE006A77EEA67AA1
:1051600027EE277A1BE007EE100AF8EE476A9FED5C
:10517000396A86EE267A334B1B6BC3F3080306EEBF
:10518000903AF8EE666A9FED316A67EE867A76EEBF
:10519000A77AF7EE006A77EEA67A27EE277A294BF0
:1051A0001B6BC3F34623013307EE903AF8EE677AA0
:1051B000C7EE276AFCEEE67A17EE900A5DF8044B1C
:1051C000704707EE100AF8EE476A9FED236A86EEF5
:1051D000267A1C4B1B6BC3F3080306EE903AF8EEDD
:1051E000666A9FED1A6A67EE867A76EEA77AF7EE20
:1051F000006A77EEA67A27EE277AD0E707EE100A44
:10520000F8EE476A9FED136A86EE267A0D4B1B6B0C
:10521000C3F3080306EE903AF8EE666A9FED0B6A58
:1052200067EE867A76EEA77AF7EE006A77EEA67AD0
:1052300027EE277AB3E709487047094870470248C4
:10524000704700BF004402580090D00300000039AE
:105250000024744C0024744A001BB74B00366E01C6
:1052600000093D00002800F0328170B50D4604466B
:105270009B4B1B6803F00F038B420BD2984A1368B9
:1052800023F00F030B431360136803F00F038B42EB
:1052900040F01F81236813F0040F0CD02269914B5A
:1052A0009B6903F070039A4205D98E498B6923F0FC
:1052B00070031A438A61236813F0080F0CD06269E7
:1052C000884BDB6903F070039A4205D98549CB69A5
:1052D00023F070031A43CA61236813F0100F0CD037
:1052E000A269804BDB6903F4E0639A4205D97D49EA
:1052F000CB6923F4E0631A43CA61236813F0200FDB
:105300000CD0E269774B1B6A03F070039A4205D90F
:1053100074490B6A23F070031A430A62236813F07E
:10532000020F0CD0E2686F4B9B6903F00F039A42A7
:1053300005D96C498B6923F00F031A438A612368EE
:1053400013F0010F41D0674A936923F47063A16899
:105350000B4393616368022B0AD0032B27D0012BE8
:105360002CD0604A126812F0040F06D10120ADE083
:10537000126812F4003F00F0AE805A490A6922F028
:10538000070213430B61FDF731F80646554B1B69C5
:1053900003F038036268B3EBC20F16D0FDF726F8AE
:1053A000801B41F288339842F0D903208EE04D4AA9
:1053B000126812F0007FE0D1012087E0494A1268AC
:1053C00012F4807FD9D1012080E0236813F0020F0E
:1053D0000CD0E268434B9B6903F00F039A4205D25D
:1053E00040498B6923F00F031A438A613C4B1B68C9
:1053F00003F00F03AB420AD9394A136823F00F03B5
:105400002B431360136803F00F03AB4265D123688D
:1054100013F0040F0CD02269324B9B6903F0700328
:105420009A4205D22F498B6923F070031A438A618F
:10543000236813F0080F0CD062692A4BDB6903F074
:1054400070039A4205D22749CB6923F070031A43AF
:10545000CA61236813F0100F0CD0A269214BDB69DD
:1054600003F4E0639A4205D21E49CB6923F4E0635A
:105470001A43CA61236813F0200F0CD0E269194B5C
:105480001B6A03F070039A4205D216490B6A23F097
:1054900070031A430A62FFF7E9FD12498B69C3F3EF
:1054A0000323114AD35C03F01F03D8408B6903F038
:1054B0000F03D35C03F01F0320FA03F30B4A1360BE
:1054C0000B4B18600B4B1868FCF73AFB70BD0120C2
:1054D00070470120FAE70120F8E70120F6E700BF56
:1054E00000200052004402581C2F01081000002424
:1054F000140000241C00002408B5FFF7B7FD0B4A78
:105500009369C3F303230A49CB5C03F01F0320FA1A
:1055100003F3926902F00F02885C00F01F0023FA87
:1055200000F0044A1060044A136008BD00440258A9
:105530001C2F0108100000241400002408B5FFF7F8
:10554000DBFF054BDB69C3F30213044AD35C03F0B2
:105550001F03D84008BD00BF004402581C2F01089B
:1055600008B5FFF7C9FF054BDB69C3F30223044A03
:10557000D35C03F01F03D84008BD00BF00440258AD
:105580001C2F01083F230360114B1A6902F0070228
:1055900042609A6902F4706282609A6902F00F02B6
:1055A000C2609A6902F070020261DA6902F0700268
:1055B0004261DA6902F4E06282611B6A03F07003FF
:1055C000C361044B1B6803F00F030B60704700BFFF
:1055D0000044025800200052404B9B6A03F0030332
:1055E000032B79D070B505460E463C4A136823F06C
:1055F00080631360FCF7FAFE0446384B1B6813F017
:10560000006F06D0FCF7F2FE031B022BF5D9032036
:1056100070BD324B9A6A22F47C32296842EA013228
:105620009A626A68013AC2F30802A968013949021C
:1056300089B20A43E9680139090401F4FE010A4309
:1056400029690139090601F0FE410A439A63DA6AC1
:1056500022F0C00269690A43DA62DA6A22F02002A3
:10566000A9690A43DA62DA6A22F01002DA62DA6BB6
:105670006FF3CF02E96942EAC102DA63DA6A42F003
:105680001002DA62C6B91A46DB6A43F40023D36219
:10569000124A136843F080631360FCF7A7FE0446C8
:1056A0000E4B1B6813F0006F14D1FCF79FFE001B1C
:1056B0000228F5D90320ABE7012E05D0074AD36AAB
:1056C00043F40013D362E3E7044AD36A43F480133C
:1056D000D362DDE700209BE70120704700440258B9
:1056E000404B9B6A03F00303032B79D070B505464A
:1056F0000E463C4A136823F080531360FCF776FE95
:105700000446384B1B6813F0005F06D0FCF76EFEB2
:10571000031B022BF5D9032070BD324B9A6A22F08D
:105720007C72296842EA01529A626A68013AC2F3BD
:105730000802A9680139490289B20A43E9680139B6
:10574000090401F4FE010A4329690139090601F03F
:10575000FE410A431A64DA6A22F4406269690A4324
:10576000DA62DA6A22F40072A9690A43DA62DA6A52
:1057700022F48072DA625A6C6FF3CF02E96942EA6E
:10578000C1025A64DA6A42F48072DA62C6B91A4611
:10579000DB6A43F48003D362124A136843F08053F8
:1057A0001360FCF723FE04460E4B1B6813F0005FEA
:1057B00014D1FCF71BFE001B0228F5D90320ABE730
:1057C000012E05D0074AD36A43F08073D362E3E722
:1057D000044AD36A43F40003D362DDE700209BE769
:1057E0000120704700440258F8B50446036813F0DE
:1057F000006F2FD0436EB3F5001F25D015D8E3B14D
:10580000B3F5801F0ED102210830FFF7E5FE0546F3
:1058100075BB934A136D23F44013616E0B431365FC
:10582000002619E00126354616E0B3F5401F01D1E8
:105830000025EEE7012635460EE0894AD36A43F497
:105840000033D3620025E4E702212830FFF748FF48
:105850000546DDE700263546236813F4807F29D00E
:10586000A36D042B22D8DFE803F005131A0A0A00FF
:105870002E46F1E77A4AD36A43F40033D362C5B9BE
:10588000774A136D23F00703A16D0B43136511E0F5
:10589000002104F10800FFF79FFE0546EFE7002115
:1058A00004F12800FFF71CFF0546E8E7012635460E
:1058B00000E02E46236813F4806F2DD0D4F8A43076
:1058C000B3F5800F3DD00DD8C3B1B3F5001F06D19D
:1058D000002104F10800FFF77FFE054613E00126D2
:1058E000354619E0B3F5000F0DD0B3F5200F0AD0FF
:1058F000B3F5C00F07D0012635460DE0584AD36AEC
:1059000043F40033D3621DBB554A936D23F4600307
:10591000D4F8A4100B439365236813F4006F37D0B9
:10592000D4F8A830B3F1007F5ED016D80BB3B3F132
:10593000807F0FD1002104F10800FFF74DFE0546DE
:105940001CE0002104F12800FFF7CAFE0546DAE753
:105950002E46E1E7012635461AE0B3F1806F0DD0FF
:10596000B3F1A06F0AD0B3F1407F07D001263546CE
:105970000EE03B4AD36A43F40033D362002D3AD1A0
:10598000374A936D23F0E063D4F8A8100B43936576
:10599000236813F0007F13D0E36C202B35D02FD871
:1059A00033B1102B29D12E4AD36A43F40033D3628A
:1059B00095BB2B4AD36C23F03003E16C0B43D364CB
:1059C000236813F4805F4ED0E36DB3F5005F3FD0E2
:1059D00027D87BB3B3F5805F20D1002104F1080004
:1059E000FFF7FAFD05462AE0002104F12800FFF741
:1059F00077FE0546C2E72E46CAE701263546DFE7B1
:105A0000302BD5D001263546DAE7022104F1080013
:105A1000FFF7E2FD0546CBE72E46D1E701263546E6
:105A200021E0B3F5405F0AD0B3F5804F07D00126DF
:105A3000354618E00A4AD36A43F40033D3628DB97D
:105A4000074A136D23F4E043E16D0B4313650AE04D
:105A5000002104F12800FFF743FE0546EFE700BFF1
:105A6000004402582E46236813F4005F17D0236EBB
:105A7000B3F5003F4FD042D843B1B3F5803F3BD19F
:105A8000012104F10800FFF7A7FD0546002D49D1CB
:105A9000924A136D23F4E023216E0B4313652368B0
:105AA00013F4804F19D0D4F8AC30B3F1005F4AD072
:105AB0003DD843B1B3F1805F36D1012104F1080034
:105AC000FFF78AFD0546002D44D1844A936D23F0EB
:105AD000E043D4F8AC100B439365236813F4004FF4
:105AE00047D0E36EB3F1805F36D0B3F1005F4BD0A7
:105AF000BBB3012635463CE001263546CFE7B3F57A
:105B0000802FC3D0B3F5A02FC0D0B3F5403FBDD098
